:100000000C9446000C9465000C9465000C946500FB
:100010000C9465000C9465000C9465000C946500CC
:100020000C9465000C9465000C9465000C946500BC
:100030000C94C0000C9465000C9465000C94650051
:100040000C9465000C9465000C9465000C9465009C
:100050000C9465000C9465000C9465000C9465008C
:100060000C9465000C9465000C9465000C9465007C
:100070000C9465000C9465000C9465000C9465006C
:100080000C9465000C9465000C94650011241FBE4F
:10009000CFEFD0E1DEBFCDBF11E0A0E0B1E0E6E4FC
:1000A000F3E000E00BBF02C007900D92A031B10752
:1000B000D9F711E0A0E1B1E001C01D92A231B10772
:1000C000E1F70E9496000C94A1010C9400003E9A66
:1000D00086B1876886B9089587B187B9369A349909
:1000E000FECF86B1856186B984B195B108958EB58C
:1000F0008D608EBD88E09DE39BBD8ABD87B7806122
:1001000087BF78948FEF90E7A2E081509040A040A5
:10011000E1F700C00000089521E08039920728F03F
:10012000809111018F5F80931101089583E390E026
:1001300061E00E94CF000E9467000E947700C0E04B
:10014000D1E00E946C008FEF90E7A2E081509040D8
:10015000A040E1F700C0000080911001882389F3DE
:10016000CE0161E00E9413018FEF9DE3A9E481506D
:100170009040A040E1F700C0000010921001E1CFD4
:100180001F920F920FB60F9211248F9381E08093EC
:1001900010018F910F900FBE0F901F9018957894BB
:1001A000662379F09093980080939900EAE9F0E053
:1001B000808188618083EDE9F0E0808186608083C2
:1001C00008959093900089B98AB188618AB9E5E968
:1001D000F0E08081866080830895882331F0EAE929
:1001E000F0E08081806880830895579A089566239F
:1001F00041F0EBE9F0E0908195FFFDCF80939C000A
:1002000008955D9BFECF8CB90895882341F0EBE9FA
:10021000F0E080818823ECF780919C0008955F9B3B
:10022000FECF8CB108951F93CF93DF93EC01162F6F
:100230008881882339F02196612F0E94F7008991E7
:100240008823D1F7DF91CF911F910895BF92CF926C
:10025000DF92EF92FF920F931F93CF93DF936B0187
:100260007C01C42F992364F48DE2642F0E94F7006F
:10027000F094E094D094C094C11CD11CE11CF11CFA
:100280008AE0C816D104E104F1047CF0C701B6018C
:100290002AE030E040E050E00E946401D62FCA011D
:1002A000B9014C2F0E942601CD2E8C2D805D6C2F24
:1002B0000E94F700DF91CF911F910F91FF90EF9077
:1002C000DF90CF90BF90089597FB092E05260ED0A2
:1002D00057FD04D014D00AD0001C38F45095409536
:1002E000309521953F4F4F4F5F4F0895F6F790950A
:1002F0008095709561957F4F8F4F9F4F0895A1E234
:100300001A2EAA1BBB1BFD010DC0AA1FBB1FEE1F8F
:10031000FF1FA217B307E407F50720F0A21BB30BDA
:10032000E40BF50B661F771F881F991F1A9469F756
:1003300060957095809590959B01AC01BD01CF01B2
:060340000895F894FFCFC0
:10034600415444393833343639313331373B000080
:00000001FF
